{
  "transactions": [
    {
      "hash": "0xd2a5d60d82226822cd4d6375a7e9d9c1299ba2678e510e55205ad3b1ad0b30f7",
      "transactionType": "CREATE",
      "contractName": "Data",
      "contractAddress": "0xfa4a15ec0F45D2Cf082Cf1Ab544527bDcde36F41",
      "function": null,
      "arguments": [
        "0x2D0bf6D3BD0636eec331f7c2861F44D74a2dcaC3"
      ],
      "rpc": "https://eth-goerli.g.alchemy.com/v2/-e-k3Lye60lwnMZWWOZ78MwaYimPGi0-",
      "transaction": {
        "type": "0x02",
        "from": "0x2d0bf6d3bd0636eec331f7c2861f44d74a2dcac3",
        "gas": "0x8566a",
        "value": "0x0",
        "data": "0x608060405234801561001057600080fd5b506040516106c63803806106c683398101604081905261002f91610054565b600080546001600160a01b0319166001600160a01b0392909216919091179055610084565b60006020828403121561006657600080fd5b81516001600160a01b038116811461007d57600080fd5b9392505050565b610633806100936000396000f3fe608060405234801561001057600080fd5b506004361061004c5760003560e01c80634df877771461005157806377ec2b55146100665780638da5cb5b146100855780638ec4dc95146100b0575b600080fd5b61006461005f3660046102c0565b6100c5565b005b61006e61015d565b60405161007c929190610348565b60405180910390f35b600054610098906001600160a01b031681565b6040516001600160a01b03909116815260200161007c565b6100b86101f8565b60405161007c919061036d565b6000546001600160a01b031633146100f65760405163245aecd360e01b815233600482015260240160405180910390fd5b806001610103828261049e565b50610116905060408201602083016105b1565b60ff167f3f8af60c68a2828acc8ae1f6b5f0907bcab124cf871668eb134fa417529e895e61014483806103a2565b6040516101529291906105ce565b60405180910390a250565b60018054819061016c906103f0565b80601f0160208091040260200160405190810160405280929190818152602001828054610198906103f0565b80156101e55780601f106101ba576101008083540402835291602001916101e5565b820191906000526020600020905b8154815290600101906020018083116101c857829003601f168201915b5050506001909301549192505060ff1682565b604080518082019091526060815260006020820152600160405180604001604052908160008201805461022a906103f0565b80601f0160208091040260200160405190810160405280929190818152602001828054610256906103f0565b80156102a35780601f10610278576101008083540402835291602001916102a3565b820191906000526020600020905b81548152906001019060200180831161028657829003601f168201915b50505091835250506001919091015460ff16602090910152919050565b6000602082840312156102d257600080fd5b813567ffffffffffffffff8111156102e957600080fd5b8201604081850312156102fb57600080fd5b9392505050565b6000815180845260005b818110156103285760208185018101518683018201520161030c565b506000602082860101526020601f19601f83011685010191505092915050565b60408152600061035b6040830185610302565b905060ff831660208301529392505050565b6020815260008251604060208401526103896060840182610302565b905060ff60208501511660408401528091505092915050565b6000808335601e198436030181126103b957600080fd5b83018035915067ffffffffffffffff8211156103d457600080fd5b6020019150368190038213156103e957600080fd5b9250929050565b600181811c9082168061040457607f821691505b60208210810361042457634e487b7160e01b600052602260045260246000fd5b50919050565b601f82111561047457600081815260208120601f850160051c810160208610156104515750805b601f850160051c820191505b818110156104705782815560010161045d565b5050505b505050565b60ff8116811461048857600080fd5b50565b6000813561049881610479565b92915050565b8135601e198336030181126104b257600080fd5b8201803567ffffffffffffffff8111156104cb57600080fd5b602081360381840113156104de57600080fd5b6104f2826104ec86546103f0565b8661042a565b6000601f831160018114610528576000841561051057508482018301355b600019600386901b1c1916600185901b178655610585565b600086815260209020601f19851690835b8281101561055a578785018601358255938501936001909101908501610539565b50858210156105795760001960f88760031b161c198585890101351681555b505060018460011b0186555b50506105aa61059582870161048b565b6001860160ff821660ff198254161781555050565b5050505050565b6000602082840312156105c357600080fd5b81356102fb81610479565b60208152816020820152818360408301376000818301604090810191909152601f909201601f1916010191905056fea2646970667358221220857594d6ef38d8b45c60668f3fa69059f21e4cd7ee2e7ab0bace82079026a1cc64736f6c634300081100330000000000000000000000002d0bf6d3bd0636eec331f7c2861f44d74a2dcac3",
        "nonce": "0x30",
        "accessList": []
      },
      "additionalContracts": []
    },
    {
      "hash": "0x325f49ce39f81c055980a566bf23f4d609de7ceaf173ece8fc40c6f760e165e5",
      "transactionType": "CALL",
      "contractName": "Data",
      "contractAddress": "0xfa4a15ec0F45D2Cf082Cf1Ab544527bDcde36F41",
      "function": "setPerson((string,uint8))",
      "arguments": [
        "(Bob Biswas, 30)"
      ],
      "rpc": "https://eth-goerli.g.alchemy.com/v2/-e-k3Lye60lwnMZWWOZ78MwaYimPGi0-",
      "transaction": {
        "type": "0x02",
        "from": "0x2d0bf6d3bd0636eec331f7c2861f44d74a2dcac3",
        "to": "0xfa4a15ec0f45d2cf082cf1ab544527bdcde36f41",
        "gas": "0x18218",
        "value": "0x0",
        "data": "0x4df8777700000000000000000000000000000000000000000000000000000000000000200000000000000000000000000000000000000000000000000000000000000040000000000000000000000000000000000000000000000000000000000000001e000000000000000000000000000000000000000000000000000000000000000a426f622042697377617300000000000000000000000000000000000000000000",
        "nonce": "0x31",
        "accessList": []
      },
      "additionalContracts": []
    }
  ],
  "receipts": [
    {
      "transactionHash": "0xd2a5d60d82226822cd4d6375a7e9d9c1299ba2678e510e55205ad3b1ad0b30f7",
      "transactionIndex": "0x5",
      "blockHash": "0x0e637a1130b2c215c90fd2598df27038c02ee09f79ef45e09f4d14481f9177d0",
      "blockNumber": "0x7ad172",
      "from": "0x2D0bf6D3BD0636eec331f7c2861F44D74a2dcaC3",
      "to": null,
      "cumulativeGasUsed": "0x9627bc",
      "gasUsed": "0x669dc",
      "contractAddress": "0xfa4a15ec0F45D2Cf082Cf1Ab544527bDcde36F41",
      "logs": [],
      "status": "0x1",
      "logsBloom": "0x00000000000000000000000000000000000000000000000000000000000000000000000000000000000000000000000000000000000000000000000000000000000000000000000000000000000000000000000000000000000000000000000000000000000000000000000000000000000000000000000000000000000000000000000000000000000000000000000000000000000000000000000000000000000000000000000000000000000000000000000000000000000000000000000000000000000000000000000000000000000000000000000000000000000000000000000000000000000000000000000000000000000000000000000000000000",
      "type": "0x2",
      "effectiveGasPrice": "0xc7cbf11c"
    },
    {
      "transactionHash": "0x325f49ce39f81c055980a566bf23f4d609de7ceaf173ece8fc40c6f760e165e5",
      "transactionIndex": "0x6",
      "blockHash": "0x0e637a1130b2c215c90fd2598df27038c02ee09f79ef45e09f4d14481f9177d0",
      "blockNumber": "0x7ad172",
      "from": "0x2D0bf6D3BD0636eec331f7c2861F44D74a2dcaC3",
      "to": "0xfa4a15ec0F45D2Cf082Cf1Ab544527bDcde36F41",
      "cumulativeGasUsed": "0x973f43",
      "gasUsed": "0x11787",
      "contractAddress": null,
      "logs": [
        {
          "address": "0xfa4a15ec0F45D2Cf082Cf1Ab544527bDcde36F41",
          "topics": [
            "0x3f8af60c68a2828acc8ae1f6b5f0907bcab124cf871668eb134fa417529e895e",
            "0x000000000000000000000000000000000000000000000000000000000000001e"
          ],
          "data": "0x0000000000000000000000000000000000000000000000000000000000000020000000000000000000000000000000000000000000000000000000000000000a426f622042697377617300000000000000000000000000000000000000000000",
          "blockHash": "0x0e637a1130b2c215c90fd2598df27038c02ee09f79ef45e09f4d14481f9177d0",
          "blockNumber": "0x7ad172",
          "transactionHash": "0x325f49ce39f81c055980a566bf23f4d609de7ceaf173ece8fc40c6f760e165e5",
          "transactionIndex": "0x6",
          "logIndex": "0xc8",
          "removed": false
        }
      ],
      "status": "0x1",
      "logsBloom": "0x00000000000000000000000000000000000000000000000200000000000000000000000000000000000000000400000000000000000000000000000000000000000000000000008000000000000000000000000000000000000000000000000000000002000000000000000000000000000000000000000000000000000000000000000000000000008000004000000000000000000000000000400000000000000000000000000000000000000000000000000000000000000000000000000000000000000000000000000000000800000000000000000000000000000000000000000000000000080000000000000000000000000000000000000000000000",
      "type": "0x2",
      "effectiveGasPrice": "0xc7cbf11c"
    }
  ],
  "libraries": [],
  "pending": [],
  "path": "/Users/sherazarshad/Desktop/learn-foundry/learn/broadcast/Data.s.sol/5/run-latest.json",
  "returns": {},
  "timestamp": 1669823032,
  "chain": 5,
  "multi": false,
  "commit": "06008f6"
}